:100000000FC000C000C000C000C000C000C000C0E1
:0400100000C000C06C
:10001E00BFE9BDBFB0E0BEBFB7B3B160B7BBB7B34A
:10002E00B260B7BBB7B3B460B7BBB7B3B860B7BB5A
:10003E00B7B3B061B7BBB7B3B062B7BBB8B3B1605B
:10004E00B8BBB8B3BD7FB8BBB8B3B460B8BBB8B3B8
:10005E00B77FB8BBB8B3B061B8BBB8B3BF7DB8BBE0
:10006E0024E01CE004E30A95F1F71A95E1F72A95CE
:10007E00D1F700000000B8B3BE7FB8BBB8B3B26012
:10008E00B8BBB8B3BB7FB8BBB8B3B860B8BBB8B376
:10009E00BF7EB8BBB8B3B062B8BB24E01CE004E3CB
:1000AE000A95F1F71A95E1F72A95D1F700000000AD
:0400BE00C5CFFFCFDC
:0A00140005900D920197E1F70895A1
:00000001FF
